:100000000C948C000C94B4000C94B4000C94580420
:100010000C9458040C9458040C94B4000C94B40040
:100020000C94B4000C94B4000C94B4000C94B40080
:100030000C94B4000C94B4000C94B4000C94B40070
:100040000C94A8030C94B4000C940E0A0C94E809C8
:100050000C94B4000C94B4000C94B4000C94B40050
:100060000C94E8040C94B4000611201135115011C1
:100070005B119911A011AA11B511C411C411C411B9
:10008000C411C411C411C411C411C411C411C411C8
:10009000C411C411C411C411C411C411C411C411B8
:1000A000C411C411C411C41106111B112011351142
:1000B00050115B11761181118C110000000023009A
:1000C0002600290000000000250028002B00000069
:1000D0000008000201000003040700000000000007
:1000E000000000000000240027002A00010204088C
:1000F0001020408001020408102001020408102092
:1001000004040404040404040202020202020303BD
:10011000030303032113CB0D11241FBECFEFD8E03F
:10012000DEBFCDBF25E0AEEEB2E001C01D92A63726
:10013000B207E1F712E0A0E0B1E0E0E1FFE202C0C7
:1001400005900D92AE3EB107D9F710E0CBE8D0E0B4
:1001500004C02197FE010E940D16CA38D107C9F7C5
:100160000E94E10D0C947B170C940000833081F009
:1001700028F4813099F08230A1F008958730A9F0F9
:100180008830B9F08430D1F4809180008F7D03C035
:10019000809180008F7780938000089584B58F7759
:1001A00002C084B58F7D84BD08958091B0008F77A3
:1001B00003C08091B0008F7D8093B00008953FB759
:1001C000F8948091DE039091DF03A091E003B09159
:1001D000E10326B5A89B05C02F3F19F00196A11D8C
:1001E000B11D3FBFBA2FA92F982F8827820F911DCD
:1001F000A11DB11DBC01CD0142E0660F771F881F14
:10020000991F4A95D1F708952091F5033091F6038F
:100210002817390771F49091F3038091F40398172C
:1002200041F0E091F303F0E0E756FC4F808190E06D
:1002300008958FEF9FEF089508951F93CF93DF9355
:10024000DC015C962D913C915D972115310539F4C7
:1002500081E090E013969C938E9312973DC0519647
:10026000ED91FC91529750969C915097892F8095D3
:100270001FB75E964C915E9741FB772770F941FD61
:100280006095F8944081772311F0492B01C04823F1
:100290004083E9012197F1F748E0508160FF02C0F7
:1002A000592B01C058235083E9012197F1F7669536
:1002B000415099F7772321F090818923808303C0EF
:1002C0008081982B90831FBF5C968D919C915D9748
:1002D0000197F1F721E030E0C901DF91CF911F9143
:1002E00008952091F5033091F6032817390771F42A
:1002F0008091F4032091F30390E0805C9F4F821B78
:10030000910960E470E00E94D715089580E090E0C4
:1003100008952091F5033091F60328173907B9F4B1
:100320009091F3038091F403981789F0E091F3031F
:10033000F0E0E756FC4F80812091F30330E02F5F1F
:100340003F4F2F7333272093F30390E008958FEFEF
:100350009FEF089585ED8093BC008091BC0084FDE3
:10036000FCCF1092EC03089540915003262F30E00B
:10037000240F311D21323105DCF42091EC032430AF
:10038000C9F4FC0180E090E0861758F430915003E6
:100390002191DC01A25DBC4FA30FB11D2C930196EE
:1003A000F3CF80915003680F6093500380E008956D
:1003B00081E0089582E008950895E091EE03809130
:1003C000ED03E81730F4F0E0E25FFC4F808190E04D
:1003D00008958FEF9FEF08959091EE038091ED03C4
:1003E000981750F4E92FF0E0E25FFC4F208130E0F5
:1003F0009F5F9093EE0302C02FEF3FEFC901089576
:100400008091ED0390E02091EE03821B9109089505
:10041000CF92DF92EF92FF920F931F93CF93DF93D0
:100420007C01262F972F8A018091F203882391F077
:10043000C62FD72F6E01C40ED51ECC15DD0571F069
:100440006991D701ED91FC910190F081E02DC701F8
:100450000995F3CF642F822F0E94B401C801DF9168
:10046000CF911F910F91FF90EF90DF90CF90089563
:10047000CF93DF931F92CDB7DEB769832091F2034C
:100480002223D1F02091EF03203240F021E030E030
:10049000FC013383228380E090E015C08091F0035B
:1004A000E82FF0E0E251FD4F998190838F5F8093B8
:1004B000F0038093EF0305C061E0CE0101960E9436
:1004C000B40181E090E00F90DF91CF9108950895FD
:1004D00080E090E0089508958091EC038111FCCFB5
:1004E000842F413208F080E291E09093EC039093E6
:1004F000EB032FEF2093750310929703280F20939F
:1005000096039093980390919803660F692B6093DC
:1005100098039091EA03913061F41092EA0390916C
:1005200098039093BB009091BC0093FDF8CF95EC9D
:1005300001C095EE9093BC009091EC039130E1F3F3
:1005400090919703981710F480919703A6E7B3E072
:100550002EE033E0F9019E2F921B981718F49D911D
:100560009193F9CF1092EE038093ED0308950F93CA
:100570001F93CF93DF938C01EB0188E2FB01119273
:100580008A95E9F74BE050E06EE372E0CE010E94FD
:100590006C171B8641E050E060E070E04C875D879F
:1005A0006E877F87F8018789908DA18DB28D888BAA
:1005B000998BAA8BBB8B4C8B5D8B6E8B7F8B1CA21C
:1005C0001DA21EA21FA2188E198E1A8E1B8E1C8EA3
:1005D0001D8E1E8E1F8E18A219A21AA21BA2DF91B9
:1005E000CF911F910F9108950C94C4161F93CF9330
:1005F000DF93282F30E0F901E253FF4F8491F90196
:10060000E451FF4FD491F901E050FF4FC491CC2346
:10061000C9F0162F81110E94B600EC2FF0E0EE0F0A
:10062000FF1FEC53FF4FA591B4918FB7F8941111B0
:1006300005C09C91ED2FE095E92302C0EC91ED2BD4
:10064000EC938FBFDF91CF911F910895CF93DF93EC
:1006500090E0FC01E451FF4F2491FC01E050FF4F7A
:100660008491882361F190E0880F991FFC01EE517D
:10067000FF4FC591D491FC01EC53FF4FA591B4916C
:10068000611109C09FB7F8948881209582238883DF
:10069000EC912E230BC0623061F49FB7F89438813F
:1006A000822F809583238883EC912E2B2C939FBFE0
:1006B00006C08FB7F894E8812E2B28838FBFDF9177
:1006C000CF9108958F929F92AF92BF92CF92DF9277
:1006D000EF92FF926B017C010E94DF004B015C01F5
:1006E000C114D104E104F104F1F00E94DF00DC0147
:1006F000CB0188199909AA09BB09883E9340A10535
:10070000B10570F321E0C21AD108E108F10888EEC2
:10071000880E83E0981EA11CB11CC114D104E10411
:10072000F10419F7DDCFFF90EF90DF90CF90BF90ED
:10073000AF909F908F9008952FB7F8946091DA034F
:100740007091DB038091DC039091DD032FBF08954E
:100750001F920F920FB60F9211242F933F938F93F6
:100760009F93AF93BF938091DA039091DB03A091A5
:10077000DC03B091DD033091D90323E0230F2D3743
:1007800020F40196A11DB11D05C026E8230F029695
:10079000A11DB11D2093D9038093DA039093DB034D
:1007A000A093DC03B093DD038091DE039091DF031F
:1007B000A091E003B091E1030196A11DB11D8093CA
:1007C000DE039093DF03A093E003B093E103BF91B6
:1007D000AF919F918F913F912F910F900FBE0F90EE
:1007E0001F9018950F931F93CF93DF93EC01162F53
:1007F000042F1B821A8288EE93E0A0E0B0E08C8385
:100800009D83AE83BF838AE091E0998388831F8AAA
:100810001E8A198E188E1B8E1A8E1D8E1C8E6E8D42
:100820006E7F20FB61F96E8F6695617081E06827AD
:10083000842F0E94F60261E0802F0E942603402F41
:1008400050E0FA01E451FF4FE491E88BFA01E050E7
:10085000FF4FE491F0E0EE0FFF1FEC53FF4F859147
:1008600094919A8B898B60E0812F0E9426038E8D54
:1008700081FD04C061E0812F0E94F6021C87612F78
:1008800070E0FB01E451FF4FE491ED87FB01E05084
:10089000FF4FE491F0E0EE0FFF1FE654FF4F85910C
:1008A00094919F878E87DF91CF911F910F9108952B
:1008B0001F920F920FB60F9211242F933F934F93D5
:1008C0005F936F937F938F939F93AF93BF93EF93B8
:1008D000FF93E091F503F091F603309709F451C0CE
:1008E000968DA685B785858591FF04C09C91892347
:1008F00029F447C09C91892309F043C0A389B48996
:100900009C918589809589238C9386899789019705
:10091000F1F7608D718DA685B785558538E020E0AB
:10092000CB010197F1F7822F90E095958795282FBD
:100930004C91452309F02068315091F7868D81FD57
:1009400020958091F40390E001968F739927309160
:10095000F303381749F0A091F403B0E0A756BC4F59
:100960002C938093F40303C0868D8160868F828DE3
:10097000938D0197F1F7A389B4899C918589892B7F
:100980008C93FF91EF91BF91AF919F918F917F9148
:100990006F915F914F913F912F910F900FBE0F90EC
:1009A0001F901895E091F503F091F603E817F90709
:1009B00069F4A389B4899C918589809589238C9356
:1009C0001092F6031092F50381E0089580E00895F7
:1009D0001F920F920FB60F9211242F933F934F93B4
:1009E0005F936F937F938F939F93AF93BF93EF9397
:1009F000FF938091B900887F803609F49CC068F528
:100A0000883209F45BC090F4803109F454C038F4A2
:100A1000882309F4F6C0883009F44DC0F6C0883147
:100A200009F44CC0803209F45DC0EFC0803409F491
:100A300068C048F4803309F455C0883309F0E5C034
:100A400080937503D8C0803509F44FC0883509F408
:100A50005DC0883409F0D9C0D6C0883909F4C7C050
:100A6000A8F4883709F467C038F4883609F463C0FD
:100A7000803709F460C0C9C0883809F4B8C080392B
:100A800009F45FC0803809F0C0C05BC0803B09F446
:100A900086C038F4803A09F466C0883A09F47FC009
:100AA000B4C0803C09F4A7C0883C09F4A4C0883BCA
:100AB00009F48AC0AAC08091980310C0909197034E
:100AC00080919603981770F5E091970381E08E0F5F
:100AD00080939703F0E0EA58FC4F80818093BB003D
:100AE00085EC86C0809375038EC0E091970381E00A
:100AF0008E0F809397038091BB00F0E0EA58FC4F83
:100B0000808390919703809196036EC0E091970344
:100B100081E08E0F809397038091BB00F0E0EA584C
:100B2000FC4F80838091EB0381116DC081E0809345
:100B3000EA0384EA61C083E08093EC0310927403BB
:100B4000CFCF80917403803208F051C0E0917403DC
:100B500081E08E0F809374038091BB00F0E0EC5A2B
:100B6000FC4F8083BDCF85EC8093BC001092EC03DA
:100B700080917403803230F4E0917403F0E0EC5A19
:100B8000FC4F10826091740370E0E0915203F09189
:100B9000530384E593E009951092740336C084E012
:100BA0008093EC031092510310925003E0914E0396
:100BB000F0914F03099580915003811105C081E0A8
:100BC0008093500310922E03E091510381E08E0F29
:100BD00080935103F0E0E25DFC4F80818093BB0085
:100BE0009091510380915003981708F479CF85E8CC
:100BF0008093BC000AC085EC8093BC001092EC038B
:100C000004C0109275030E94AA01FF91EF91BF9159
:100C1000AF919F918F917F916F915F914F913F9194
:100C20002F910F900FBE0F901F9018952091EF03FA
:100C30009091F103213208F04AC08091EC038111B8
:100C4000FCCF32E03093EC0331E03093EB033FEF25
:100C5000309375031092970320939603AEEEB2E0A3
:100C600046E753E0FA013E2F341B321718F43D914A
:100C70003193F9CF1092980320919803990F922BFA
:100C8000909398039091EA03913061F41092EA03F3
:100C9000909198039093BB009091BC0093FDF8CF86
:100CA00095EC01C095EE9093BC009091EC039230CE
:100CB000E1F3909175039F3F79F080917503803245
:100CC00041F080917503803331F084E005C081E00C
:100CD00003C082E001C083E01092F0031092EF03A2
:100CE0001092F2030895AF92BF92CF92DF92EF92EB
:100CF000FF920F931F93CF93DF93FC01278D2F3F1C
:100D000039F46EBD00000DB407FEFDCF8EB543C0B3
:100D1000D62EEC0107E010E0B12CEE24E394F12C88
:100D2000BB0C60E08F8D0E94F602B701002E01C05F
:100D3000660F0A94EAF76D218D8D0E94F60261E03C
:100D40008F8D0E94F6022E8D30E0F901E253FF4FA5
:100D50008491F901E451FF4FA490F901E050FF4F55
:100D6000C490CC2071F081110E94B600EC2DF0E00F
:100D7000EE0FFF1FE654FF4FA591B491EC91AE2208
:100D800031F40150110908F0CBCF8B2D04C08B2D0D
:100D90008160B82EF6CFDF91CF911F910F91FF9018
:100DA000EF90DF90CF90BF90AF90089508958CBDE5
:100DB0009DBD08951F93CF93DF93EC01162F8C8D6B
:100DC0008F3F61F58B8D91E09093F2038093F10357
:100DD0001092F0031092EF038D899E89DC01ED9152
:100DE000FC910190F081E02D09958D899E890E94EA
:100DF00016066B8D062E000C770B41E050E08D89B6
:100E00009E890E946C028D899E89DC01ED91FC9186
:100E10000284F385E02D0995182F19C08F8D8F3F1F
:100E200021F482E591E00E94D70660E08C8D0E945B
:100E3000F602612F6068CE010E94730660E0CE0169
:100E40000E947306182F61E08C8D0E94F602812F9C
:100E5000DF91CF911F910895CF92DF92EF92FF9291
:100E6000CF93DF93EC018C8D8F3F09F07AC08B8D8F
:100E700091E09093F2038093F1031092F0031092AB
:100E8000EF038D899E89DC01ED91FC910190F08149
:100E9000E02D68EA09958D899E890E9416066B8D62
:100EA000062E000C770B46E050E08D899E890E944B
:100EB0006C028D899E89DC01ED91FC910284F385A1
:100EC000E02D09959C838B838D899E89DC01ED91B2
:100ED000FC910284F385E02D099520E030E0382F65
:100EE0008B819C81282B392B3C832B838D899E8978
:100EF000DC01ED91FC910284F385E02D09959E8340
:100F00008D838D899E89DC01ED91FC910284F385AE
:100F1000E02D099520E030E0382F8D819E81282B2F
:100F2000392B3E832D838D899E89DC01ED91FC91C7
:100F30000284F385E02D099598878F838D899E899A
:100F4000DC01ED91FC910284F385E02D099520E010
:100F500030E0382F8F819885282B392B38872F83C5
:100F600043C08F8D8F3F21F482E591E00E94D70628
:100F700060E08C8D0E94F60268EECE010E9473063E
:100F80006FEFCE010E94730690E09C838B836FEF1E
:100F9000CE010E9473062B813C81382B3C832B832E
:100FA0006FEFCE010E94730690E09E838D836FEFFA
:100FB000CE010E9473062D813E81382B3E832D8306
:100FC0006FEFCE010E94730690E098878F836FEFDA
:100FD000CE010E9473062F813885382B38872F83E6
:100FE00061E08C8D0E94F60263E2CE010E94DA0677
:100FF00090E024E0959587952A95E1F783709927ED
:101000008330910509F44FC08230910551F0813051
:10101000910551F061E070E0892B41F46CEF7FE3C2
:1010200005C060E070E102C06EEF7FE180E090E01B
:101030000E9440146B017C016B817C81072E000CA7
:10104000880B990B0E944214A70196010E94551526
:1010500069877A878B879C876D817E81072E000C3C
:10106000880B990B0E944214A70196010E94551506
:101070006D877E878F87988B6F817885072E000C10
:10108000880B990B0E944214A70196010E945515E6
:10109000698B7A8B8B8B9C8BDF91CF91FF90EF903C
:1010A000DF90CF90089565E575E0C0CF0F931F9353
:1010B000CF93DF938C01EB0184E2FB0111928A95BF
:1010C000E9F784E290E0A0E0B0E088839983AA8306
:1010D000BB83F8018789908DA18DB28D8C839D8310
:1010E000AE83BF8381E090E0A0E0B0E0888799877D
:1010F000AA87BB87188A198A1A8A1B8AC8010E9484
:101100002C072AE038EE4CE151E4F8016185728544
:10111000838594850E947D146C8B7D8B8E8B9F8B39
:101120002AE038EE4CE151E4F80165857685878543
:1011300090890E947D14688F798F8A8F9B8F2AE017
:1011400038EE4CE151E4F801618972898389948910
:101150000E947D146C8F7D8F8E8F9F8F81E0DF9139
:10116000CF911F910F910895089584E994E00E9412
:10117000AE0A61E08FE00E94260360E08FE00E94EB
:10118000F60285E492E00E949B0A60E27EE480E041
:1011900090E00C9462036115710579F0FB010190F8
:1011A0000020E9F73197AF01461B570BDC01ED91A9
:1011B000FC910280F381E02D099480E090E0089595
:1011C000CF92DF92EF92FF920F931F93CF93DF9313
:1011D0006C017A018B01C0E0D0E0CE15DF0589F00B
:1011E000D8016D918D01D601ED91FC910190F081B6
:1011F000E02DC6010995892B11F47E0102C02196CC
:10120000ECCFC701DF91CF911F910F91FF90EF902D
:10121000DF90CF900895FC01538D448D252F30E051
:10122000842F90E0821B930B541710F0CF960895F3
:1012300001970895FC01918D828D981761F0828D40
:10124000DF01A80FB11D5D968C91928D9F5F9F73FA
:10125000928F90E008958FEF9FEF0895FC01918D9C
:10126000828D981731F0828DE80FF11D858D90E009
:1012700008958FEF9FEF0895FC01918D228D892FA6
:1012800090E0805C9F4F821B91098F73992708958E
:1012900087EF93E00E943C0921E0892B09F420E0CC
:1012A000822F0895FC01848DDF01A80FB11DA35A80
:1012B000BF4F2C91848D90E001968F739927848F76
:1012C000A689B7892C93A089B1898C9180648C936D
:1012D000938D848D981306C00288F389E02D808158
:1012E0008F7D80830895EF92FF920F931F93CF938A
:1012F000DF93EC0181E0888F9B8D8C8D981305C066
:10130000E889F989808185FD24C0F62E0B8D10E0D7
:101310000F5F1F4F0F731127E02E8C8DE8120CC04A
:101320000FB607FCFACFE889F989808185FFF5CFF0
:10133000CE010E945209F1CF8B8DFE01E80FF11D05
:10134000E35AFF4FF0820B8FEA89FB89808180622C
:1013500007C0EE89FF896083E889F989808180640C
:10136000808381E090E0DF91CF911F910F91FF90FA
:10137000EF900895CF93DF93EC01888D8823C9F017
:10138000EA89FB89808185FD05C0A889B9898C918E
:1013900086FD0FC00FB607FCF5CF808185FFF2CF29
:1013A000A889B9898C9185FFEDCFCE010E945209A1
:1013B000E7CFDF91CF91089580E090E0892B29F06D
:1013C0000E94480981110C94000008950E945C1746
:1013D0001F920F920FB60F9211242F933F934F93AA
:1013E0005F936F937F938F939F93AF93BF93EF938D
:1013F000FF9387EF93E00E945209FF91EF91BF9115
:10140000AF919F918F917F916F915F914F913F919C
:101410002F910F900FBE0F901F9018951F920F9253
:101420000FB60F9211242F938F939F93EF93FF93F7
:10143000E0910704F09108048081E0910D04F0919F
:101440000E0482FD12C09081809110048F5F8F7313
:1014500020911104821751F0E0911004F0E0E9505E
:10146000FC4F958F8093100401C08081FF91EF9114
:101470009F918F912F910F900FBE0F901F901895F5
:10148000CF93DF93C82FD62F8091EE048F3F59F56D
:101490008091ED0491E09093F2038093F103109218
:1014A000F0031092EF038091E7049091E804DC01CF
:1014B000ED91FC910190F081E02D6C2F09958091C8
:1014C000E7049091E804DC01ED91FC910190F0813A
:1014D000E02D6D2F09958091E7049091E804DF914C
:1014E000CF910C9416068091F1048F3F21F482E590
:1014F00091E00E94D70660E08091EE040E94F6021F
:101500006C2F6F7782ED94E00E9473066D2F82ED51
:1015100094E00E94730661E08091EE040E94F6025E
:101520008091F1048F3F21F4DF91CF910C94D60686
:10153000DF91CF910895CF93DF93BC0187EF93E0C4
:101540000E94CB08EC0167EA72E087EF93E00E940B
:10155000CB088C0F9D1FDF91CF910895CF93DF9320
:10156000FC01138E128E118E108E178A168A8DE949
:1015700091E0958F848F8485863108F04DC02DEBE6
:1015800030E0378B268B2BE931E0318F208F2CE236
:1015900031E0338F228F90916800883050F021E045
:1015A0008E3008F420E081E001C0880F2A95EAF728
:1015B00001C084E0892B809368009485983038F0CE
:1015C0009E3040F0963148F020E030E008C02DE633
:1015D00030E005C02BE630E002C02CE630E0348B72
:1015E000238B983030F481E001C0880F9A95EAF798
:1015F0000EC0292F30E09E3018F42850310902C067
:101600002E50310981E001C0880F2A95EAF7858BB9
:10161000848D958D0197F1F7828D938D892BE9F05B
:101620008091F5039091F6038E179F07B1F0EF01BB
:10163000009711F00E94D2048E8D8E7F8E8F1092B3
:10164000F4031092F303D093F603C093F503EB89F0
:10165000FC8990818D89892B8083DF91CF910895BA
:10166000CF9388E18093ED048091EE048F3F41F5A4
:101670001092EE031092ED031092F0031092EF031C
:101680001092EC0381E08093EB031092EA0361E097
:1016900082E10E94F60261E083E10E94F6028091FD
:1016A000B9008E7F8093B9008091B9008D7F8093BF
:1016B000B90088E48093B80085E48093BC004EC0F4
:1016C00061E00E94F60261E08091EE040E94260330
:1016D0008091F1048F3F09F034C0CFB7F894809126
:1016E0006505811127C0EAE0F1E08491E6EFF0E0C2
:1016F0009491E82FF0E0EE0FFF1FEE51FF4FA59100
:10170000B491EC91E92321F461E08AE00E94F602B1
:1017100061E08AE00E9426038CB580618CBD8CB5A7
:1017200080648CBD61E08DE00E94260361E08BE067
:101730000E942603809165058F5F80936505CFBF6A
:101740000DC061E00E94260361E08091EF040E94D9
:10175000260360E08091F0040E9426036FE082ED92
:1017600094E00E94DA068333E9F467E080E20E94A5
:10177000400A60E282ED94E00E94DA068F70682FE2
:10178000606780E20E94400A68E883E20E94400AA3
:1017900060E182E20E94400A60E88FE10E94400A14
:1017A00081E001C080E0CF9108954F925F926F92E7
:1017B0007F928F929F92AF92BF92CF92DF92EF92E1
:1017C000FF920F931F93CF93DF93CDB7DEB72C9784
:1017D0000FB6F894DEBF0FBECDBFFC010190002014
:1017E000E9F73197E81BF90B8E010F5F1F4F2CE0D3
:1017F000D8011D922A95E9F79A838983FC83EB83AC
:1018000086EE92E098878F8387E090E09A878987B9
:10181000EF2B09F4A0C04E01BDE08B0E911C0E947D
:101820009C0360939C0470939D0480939E0490930A
:101830009F04E0919404F09195040284F385E02DD7
:1018400084E994E0099597FD02C0F80150C00E9418
:101850009C03C0909C04D0909D04E0909E04F09066
:101860009F04DC01CB018C199D09AE09BF09C09012
:101870009804D0909904E0909A04F0909B048C1501
:101880009D05AE05BF05A8F22FEF3FEF66C02115FD
:10189000310541F12901A201415051097B01E40EBA
:1018A000F51ED701EC900E2C000CFF088E159F053D
:1018B00009F04BC04115510599F05B016901C41A4B
:1018C000D50AC60ED71EE12CF12CD5016D905D0115
:1018D000D6017D906D01671479F1E416F50699F54E
:1018E000558244823696E815F90508F098CF608154
:1018F000718124813581DB01A20FB31F4C91042E2D
:10190000000C550B8417950711F62F5F3F4F358359
:101910002483428153812417350721F7E01BF10B03
:10192000F595E7958BEA9AEAE89F9001E99F300DDB
:10193000F89F300D112411C0BFEFEB1AFB0AE4161B
:10194000F50618F2CACF2A01A6CF41155105D9F7DD
:1019500015821482C7CF20E030E081E0232B09F00C
:1019600080E02C960FB6F894DEBF0FBECDBFDF919E
:10197000CF911F910F91FF90EF90DF90CF90BF908C
:10198000AF909F908F907F906F905F904F90089551
:101990000F931F93CF93DF93EC0160E070E0CB01D6
:1019A000E99120ED2E0F2A30C0F4AAE0B0E09B01AF
:1019B000AC010E943B150E2FEE0F110B220B330BC7
:1019C000DC01CB01800F911FA21FB31FBC01CD0111
:1019D0006053710981099109E3CFDF91CF911F9184
:1019E0000F9108950F931F93CF93C1E08091480505
:1019F0008D3221F0C0E008E415E002C009E415E0F2
:101A0000C8010E94C80C9B01AC01A4E6B0E00E9492
:101A10003B15F801DF01219130ED320F3A30D0F360
:101A20002E3269F511962C91119730ED320F3A3024
:101A300030F5022E000C330B205331094AE0429F4F
:101A40008001439F100D1124012E000C220B330B3B
:101A5000600F711F821F931F12960C9120ED200FB3
:101A60002A3068F4002E000C110B00531109012ECE
:101A7000000C220B330B600F711F821F931FCC23AE
:101A800039F090958095709561957F4F8F4F9F4F5E
:101A9000CF911F910F9108954F925F926F927F9215
:101AA0008F929F92AF92BF92CF92DF92EF92FF926E
:101AB000CF93DF9388E495E00E94C80C2B013C0192
:101AC00024E630E040E050E00E94EB159B01AC01C1
:101AD00060EA76E881E090E00E94C7156B017C0126
:101AE000E8E4F5E0819190ED980F9A30D8F38E32CA
:101AF00019F5EF0180E1882E87E2982EA12CB12CF8
:101B0000A99180ED8A0F8A30B8F40A2E000CBB0B25
:101B1000D097A50194010E941316C60ED71EE81E89
:101B2000F91EC501B4012AE030E040E050E00E9417
:101B3000EB1549015A01E4CFC701B6016D5F7F4F34
:101B40008F4F9F4F26E030E040E050E00E94EB15C1
:101B500069017A01C301B20124E630E040E050E0BF
:101B60000E94EB1560E472E48FE090E00E94C715DC
:101B70006C0D7D1D8E1D9F1DDF91CF91FF90EF900D
:101B8000DF90CF90BF90AF909F908F907F906F909D
:101B90005F904F900895CF93DF93CAE0D1E0D09348
:101BA0009504C093940484E994E00E94D204D093F5
:101BB000B404C093B30483EB94E0DF91CF910C9411
:101BC000D204CF93DF93CDB7DEB7C85ED1090FB68D
:101BD000F894DEBF0FBECDBF789484B5826084BD1B
:101BE00084B5816084BD85B5826085BD85B5816021
:101BF00085BD80916E00816080936E00109281009F
:101C00008091810082608093810080918100816059
:101C1000809381008091800081608093800080911A
:101C2000B10084608093B1008091B00081608093A6
:101C3000B00080917A00846080937A0080917A006D
:101C4000826080937A0080917A00816080937A002C
:101C500080917A00806880937A001092C100E091B0
:101C60000704F091080482E08083E0910304F0917E
:101C700004041082E0910504F09106048FEC808347
:101C800010920F04E0910B04F0910C0486E0808325
:101C9000E0910904F0910A04808180618083E091E1
:101CA0000904F0910A04808188608083E09109042E
:101CB000F0910A04808180688083E0910904F091AA
:101CC0000A0480818F7D80830E94B50883EB94E0B5
:101CD0000E94AE0A61E08EE00E94260360E08EE082
:101CE0000E94F6020E94300B82ED94E00E942C07C5
:101CF0008091D5049091D60497FF03C0919581956A
:101D000091099093E5038093E4038091D704909127
:101D1000D80497FF03C09195819591099093E303AF
:101D20008093E2031E0126E4220E311C90E1C92EAD
:101D300097E2D92EE12CF12C28EE822E23E0922E70
:101D4000A12CB12C0E94300B82ED94E00E942C0754
:101D50002091D5043091D60437FF03C031952195E9
:101D600031093093E9032093E8038091D7049091DF
:101D7000D80497FF03C09195819591099093E7034B
:101D80008093E6034091E4035091E503BA0168545F
:101D9000744F62177307ACF0485B5B40241735073C
:101DA00084F02091E2033091E303A9014854544F99
:101DB0004817590734F0285B3B40821793070CF013
:101DC00026C483EB94E00E94AE0A61E08EE00E949C
:101DD000F60282E0782E6624639483EB94E00E94FE
:101DE0007101892B09F46DC383EB94E00E94890192
:101DF0002C019C01990F440B550B57FF50C0E091EB
:101E0000F703F091F8030190F081E02D6DE287EF88
:101E100093E0CB51DF4F2883C55ED040CA51DF4FDE
:101E20003883C65ED040C951DF4F4883C75ED0407B
:101E3000C851DF4F5883C85ED0400995CB51DF4F62
:101E40002881C55ED040CA51DF4F3881C65ED04080
:101E5000C951DF4F4881C75ED040C851DF4F58811C
:101E6000C85ED04050954095309521953F4F4F4FDB
:101E70005F4F19A28E010F5D1F4FCA01B9012AE001
:101E800030E040E050E00E94EB15605DD8016E93B9
:101E90008D01211531054105510579F715C019A2AC
:101EA0008E010F5D1F4FCA01B9012AE030E040E00A
:101EB00050E00E94EB15605DF80162938F012115DF
:101EC00031054105510579F7B80187EF93E00E948C
:101ED000CB0867EA72E087EF93E00E94CB08142DED
:101EE00080915B0590915C05A0915D05B0915E05C8
:101EF0000196A11DB11D80935B0590935C05A09395
:101F00005D05B0935E05143209F450C2E0915905A5
:101F1000153234F41A3071F01D3009F054C20AC081
:101F20001A3241F01C3209F04EC280914605482613
:101F300040924605EF3008F027C2F0E0E85BFA4F28
:101F4000108280914705882309F428C12091480513
:101F50003FEB320F822F022E000C990B363010F41B
:101F6000C79707C02156263018F48755910901C03C
:101F7000C097282F2295207F309149054FEB430FC2
:101F8000832F032E000C990B463010F4C79707C01F
:101F90003156363018F48755910901C0C097820F29
:101FA000909146058913F0C080915A05882309F461
:101FB000EBC180915F05909160050196909360055B
:101FC00080935F0580913A0590913B05A0913C0577
:101FD000B0913D058093360590933705A093380561
:101FE000B09339058091420590914305A091440535
:101FF000B091450580933E0590933F05A093400521
:10200000B093410580915705882309F464C081305D
:1020100009F0B6C18091F6049091F704A091F804FC
:10202000B091F9048093F2049093F304A093F40424
:10203000B093F5048091FE049091FF04A0910005F7
:10204000B09101058093FA049093FB04A093FC04E3
:10205000B093FD048091060590910705A0910805B5
:10206000B09109058093020590930305A0930405A0
:10207000B093050580910E0590910F05A091100574
:10208000B091110580930A0590930B05A0930C0560
:10209000B0930D0580911E0590911F05A09120051C
:1020A000B091210580931A0590931B05A0931C0500
:1020B000B0931D058091260590912705A0912805D4
:1020C000B09129058093220590932305A0932405C0
:1020D000B093250555C18091160590911705A091E3
:1020E0001805B09119058093120590931305A093DC
:1020F0001405B09315058091F6049091F704A09112
:10210000F804B091F9048093F2049093F304A0933F
:10211000F404B093F5048091060590910705A09111
:102120000805B09109058093020590930305A093DB
:102130000405B093050580910E0590910F05A091BF
:102140001005B091110580930A0590930B05A0939B
:102150000C05B0930D058091340590913505909351
:1021600033058093320580912E0590912F05A09123
:102170003005B091310580932A0590932B05A093EB
:102180002C05B0932D05FCC08091610590916205EE
:1021900001969093620580936105F6C09091580571
:1021A00091111CC048E455E0ABE5B2E0CA01FC0166
:1021B0002191CF01222309F4E5C03D912317B9F302
:1021C000A0EEB2E0FA018191AF01882309F436C292
:1021D0009D918917B9F370925705D6C0E0915705C4
:1021E000E23009F4D1C080914805882309F4CCC0BD
:1021F00020E2E29FF0011124E92B3197E932F10549
:1022000008F0C2C0EC5CFF4F0C940D160E94F20C5B
:102210006093F6047093F7048093F8049093F904A4
:102220000E949C0360933A0570933B0580933C05A4
:1022300090933D05A9C091E0813409F07DC07DC037
:102240000E944C0D60930605709307058093080566
:10225000909309050E949C03609342057093430587
:1022600080934405909345058FC0833509F08CC059
:102270008091060590910705A0910805B091090588
:10228000B095A095909581959F4FAF4FBF4F80938C
:10229000060590930705A0930805B093090574C03F
:1022A0000E944C0D60930E0570930F0580931005EE
:1022B0009093110569C0873509F066C080910E05BD
:1022C00090910F05A0911005B0911105B095A095C2
:1022D000909581959F4FAF4FBF4F80930E05909380
:1022E0000F05A0931005B09311054EC00E94F20C8B
:1022F00060931E0570931F05809320059093210520
:1023000043C00E94F20C60932605709327058093CA
:1023100028059093290538C088E495E00E94C80CF0
:102320006093FE047093FF04809300059093010571
:102330002BC091E081330CF490E090935A0524C0B7
:1023400088E495E00E94D9139927909335058093EE
:1023500034051AC00E94F20C60932E0570932F056D
:1023600080933005909331050FC00E94F20C60936A
:10237000160570931705809318059093190504C0EE
:1023800081E003C06092570580E0909158059F5FFF
:10239000909358051092590591E01A3209F090E097
:1023A00090934705882309F418CD21C01092590550
:1023B00010925805109246057092570510924705E5
:1023C00010925A050ACDEE3040F481E08E0F8093D2
:1023D0005905F0E0E85BFA4F408280914705811192
:1023E000FCCC80914605482640924605F6CC80916B
:1023F000020590910305A0910405B0910505CF5108
:10240000DF4F88839983AA83BB83C15ED04040900D
:102410000A0550900B0560900C0570900D05809199
:102420003E0590913F05A0914005B09141058F3F39
:102430009F4FAF4FBF4F11F00E949C032AE0AE01A7
:102440004B525F4FCF51DF4F688179818A819B81E9
:10245000C15ED0400E94F7132AE0AE0147535F4FA0
:10246000C301B2010E94F71385E4E8E1F1E0DE0167
:10247000119601900D928A95E1F783E8D1011D92A2
:102480008A95E9F7BE016B527F4FCE0101960E94FB
:10249000611761E672E0CE0101960E946117BE01EC
:1024A00067537F4FCE0101960E94611768EE73E07B
:1024B00080E090E00E9462030E94B50800E010E016
:1024C00005C08CE692E00E949B0A87CCC0929804DB
:1024D000D0929904E0929A04F0929B0467EA72E029
:1024E00084E994E00E94CB086AE070E080E090E02C
:1024F0000E9462036AE772E084E994E00E94CB08DC
:1025000086E892E00E94D50B8823F1F169E872E039
:1025100084E994E00E94CB0863E972E084E994E0E6
:102520000E94CB0860EA72E084E994E00E94CB0844
:1025300084EA92E00E94D50B882331F1BE016F5FDF
:102540007F4F84E994E00E94CB0866EA72E084E958
:1025500094E00E94CB08C0929804D0929904E09233
:102560009A04F0929B048AEA92E00E94D50B882399
:1025700059F08092980490929904A0929A04B09293
:102580009B0482EB92E01AC0809298049092990486
:10259000A0929A04B0929B040F5F1F4F8EEB92E0C3
:1025A0000E949B0A64EF71E080E090E00E94620369
:1025B0000A30110509F08ACF81ED92E00E949B0A52
:1025C00060EE73E984E090E00E9462030E94300BA9
:1025D00082ED94E00E942C078091D5049091D6045E
:1025E00097FF03C09195819591099093E90380939A
:1025F000E8038091D7049091D80497FF03C0919588
:10260000819591099093E7038093E60304C060E00D
:102610008EE00E94F6028091E8039091E903909386
:10262000E5038093E4038091E6039091E7039093A0
:10263000E3038093E2030E94DC0984CB10925705E8
:10264000A3CECF93DF93E7EFF3E01382128288EEFD
:1026500093E0A0E0B0E084839583A683B78324EE63
:1026600031E03183208325EC30E03587248724EC6A
:1026700030E03787268720EC30E0318B208B21EC4F
:1026800030E0338B228B22EC30E0358B248B26EC30
:1026900030E0378B268B118E128E138E148EC6E689
:1026A000D5E01B821A828C839D83AE83BF8386EF25
:1026B00091E099838883E2EFF4E08FEF9FEFDC01F4
:1026C00080839183A283B38310861186128613863A
:1026D0004FEF59EC6AE97BE3408B518B628B738B34
:1026E000408F518F628F738F40A351A362A373A356
:1026F00040A751A762A773A740AB51AB62AB73ABC6
:1027000080AF91AFA2AFB3AF2FEF30E0309333057E
:10271000209332058093360590933705A0933805B2
:10272000B093390580933E0590933F05A0934005F3
:10273000B0934105109246051092470522E0209380
:102740005705109258051092590510925A0510928B
:102750005B0510925C0510925D0510925E0510926B
:10276000600510925F05109262051092610510924B
:102770004805E2EDF4E026E232E031832083878BE6
:10278000908FA18FB28F848F858F868F878FD68B06
:10279000C58B20E043E062E083EB94E00E94F2030B
:1027A00020E041E160E184E994E0DF91CF910C9475
:1027B000F203FC0188279927E89421912032E9F35C
:1027C000293010F02E30C8F32B3241F02D3239F47D
:1027D000689404C00E940614820F911D2191205319
:1027E0002A30C0F31EF4909581959F4F0895BB2722
:1027F0002A3051F4992342F4BDE29095809570956A
:1028000061957F4F8F4F9F4F0C940F147AE0979FE5
:10281000902D879F802D910D11240895BB27FA01DB
:10282000A62F6217710581059105330B30FB66F009
:10283000AA27660F771F881F991FAA1FA21710F0DB
:10284000A21B63953850A9F7A05DAA3308F0A95DD3
:10285000A19336F7B111B1931082CA010C943014D0
:10286000DC01FC01672F71917723E1F7329704C0F7
:102870007C916D9370836291AE17BF07C8F3089582
:10288000E89409C097FB3EF490958095709561950A
:102890007F4F8F4F9F4F9923A9F0F92F96E9BB27C0
:1028A0009395F695879577956795B795F111F8CF3C
:1028B000FAF4BB0F11F460FF1BC06F5F7F4F8F4FA7
:1028C0009F4F16C0882311F096E911C0772321F09D
:1028D0009EE8872F762F05C0662371F096E8862F35
:1028E00070E060E02AF09A95660F771F881FDAF78C
:1028F000880F9695879597F908950E9490140C94E7
:1029000001150E94F31438F00E94FA1420F0952368
:1029100011F00C94EA140C94F01411240C94351555
:102920000E94121570F3959FC1F3950F50E0551F4B
:10293000629FF001729FBB27F00DB11D639FAA2714
:10294000F00DB11DAA1F649F6627B00DA11D661F63
:10295000829F2227B00DA11D621F739FB00DA11D84
:10296000621F839FA00D611D221F749F3327A00D3E
:10297000611D231F849F600D211D822F762F6A2FDA
:1029800011249F5750409AF0F1F088234AF0EE0F3F
:10299000FF1FBB1F661F771F881F91505040A9F76C
:1029A0009E3F510580F00C94EA140C9435155F3F5E
:1029B000E4F3983ED4F3869577956795B795F795A8
:1029C000E7959F5FC1F7FE2B880F911D9695879520
:1029D00097F9089597F99F6780E870E060E008959F
:1029E0009FEF80EC089500240A9416161706180627
:1029F0000906089500240A94121613061406050603
:102A00000895092E0394000C11F4882352F0BB0F93
:102A100040F4BF2B11F460FF04C06F5F7F4F8F4FF6
:102A20009F4F089557FD9058440F551F59F05F3F31
:102A300071F04795880F97FB991F61F09F3F79F0E0
:102A400087950895121613061406551FF2CF469562
:102A5000F1DF08C0161617061806991FF1CF8695E4
:102A60007105610508940895E894BB2766277727C8
:102A7000CB0197F908950E944615A59F900DB49F2C
:102A8000900DA49F800D911D11240895A29FB00167
:102A9000B39FC001A39F700D811D1124911DB29F92
:102AA000700D811D1124911D08950E9469150C94CB
:102AB00001150E94FA1458F00E94F31440F029F412
:102AC0005F3F29F00C94EA1451110C9435150C94C5
:102AD000F0140E94121568F39923B1F3552391F372
:102AE000951B550BBB27AA2762177307840738F07D
:102AF0009F5F5F4F220F331F441FAA1FA9F335D0DA
:102B00000E2E3AF0E0E832D091505040E695001C8D
:102B1000CAF72BD0FE2F29D0660F771F881FBB1F47
:102B2000261737074807AB07B0E809F0BB0B802D25
:102B3000BF01FF2793585F4F3AF09E3F510578F051
:102B40000C94EA140C9435155F3FE4F3983ED4F3EB
:102B5000869577956795B795F7959F5FC9F7880F25
:102B6000911D9695879597F90895E1E0660F771F77
:102B7000881FBB1F621773078407BA0720F0621B08
:102B8000730B840BBA0BEE1F88F7E0950895DB01F9
:102B90008F939F930E943B15BF91AF91A29F800D91
:102BA000911DA39F900DB29F900D1124089597FB46
:102BB000072E16F4009407D077FD09D00E941B164B
:102BC00007FC05D03EF4909581959F4F0895709530
:102BD00061957F4F0895A1E21A2EAA1BBB1BFD0130
:102BE0000DC0AA1FBB1FEE1FFF1FA217B307E407EC
:102BF000F50720F0A21BB30BE40BF50B661F771F44
:102C0000881F991F1A9469F7609570958095909523
:102C10009B01AC01BD01CF010895EE0FFF1F059090
:102C2000F491E02D0994B7FF0C943B150E943B15DD
:102C3000821B930B0895AA1BBB1B51E107C0AA1F5F
:102C4000BB1FA617B70710F0A61BB70B881F991F4D
:102C50005A95A9F780959095BC01CD010895CF9321
:102C6000DF938230910510F482E090E0E0917405EA
:102C7000F091750520E030E0C0E0D0E0309711F130
:102C80004081518148175907C0F04817590761F42E
:102C900082819381209719F09B838A832BC0909324
:102CA00075058093740526C02115310519F042176A
:102CB000530718F49A01BE01DF01EF010280F3818E
:102CC000E02DDCCF2115310509F1281B390B24300B
:102CD000310590F412968D919C91139761157105B1
:102CE00021F0FB019383828304C090937505809348
:102CF0007405FD01329644C0FD01E20FF31F81937C
:102D00009193225031092D933C933AC02091720542
:102D100030917305232B41F420910201309103017E
:102D200030937305209372052091000130910101C9
:102D30002115310541F42DB73EB740910401509162
:102D40000501241B350BE0917205F0917305E21724
:102D5000F307A0F42E1B3F0B2817390778F0AC01BE
:102D60004E5F5F4F2417350748F04E0F5F1F50939B
:102D70007305409372058193919302C0E0E0F0E007
:102D8000CF01DF91CF9108950F931F93CF93DF93DE
:102D9000009709F48CC0FC013297138212820091D3
:102DA0007405109175050115110581F4208131819B
:102DB000820F931F209172053091730528173907F0
:102DC00079F5F0937305E093720571C0D80140E086
:102DD00050E0AE17BF0750F412962D913C91139717
:102DE000AD012115310509F1D901F3CF9D01DA01BA
:102DF0003383228360817181860F971F8217930727
:102E000069F4EC0128813981260F371F2E5F3F4F6F
:102E1000318320838A819B8193838283452B29F48C
:102E2000F0937505E093740542C01396FC93EE93FE
:102E30001297ED01499159919E01240F351FE21718
:102E4000F30771F480819181840F951F029611968A
:102E50009C938E938281938113969C938E93129769
:102E6000E0E0F0E0D80112968D919C9113970097C5
:102E700019F0F8018C01F6CF8D919C9198012E5F8D
:102E80003F4F820F931F20917205309173052817D1
:102E9000390769F4309729F410927505109274057A
:102EA00002C0138212821093730500937205DF91A2
:102EB000CF911F910F91089581E090E0F8940C94C8
:102EC0007B17FB01DC010D900020E9F711970190C1
:102ED0000D920020E1F70895FB01DC0141505040C4
:102EE00048F001900D920020C9F701C01D92415099
:102EF0005040E0F7089510E0CBE8D0E004C0FE01B8
:102F00000E940D162196CC38D107C9F7F894FFCF4F
:102F1000000076058000000000001D01E008680246
:102F20001C0171018901040154776F6A20706F6A76
:102F3000617A64207A6E616A64756A652073696576
:102F4000206E61206E6173746570756A6163796368
:102F500068207773706F6C727A65646E7963683A13
:102F600020537A65726F6B6F73633D200000000021
:102F70000000000000000000000000000000000051
:102F80000000000000000000000000000000000041
:102F90000000000000000000000000000000000031
:102FA0000000000000000000000000000000000021
:102FB0000000000000000000000000000000000011
:102FC0000000000000000000000000000000000001
:102FD00000000000000000000000000000000000F1
:102FE00000000000000000000000000000000000E1
:102FF000000000007309E0080B09BA093C091A092E
:103000002E0900000000380208026802DC010002FC
:10301000EC01DD0100000000E609E008680267023B
:10302000E609E609E60900000000E609E008680292
:10303000670200000000B408F4026B025608B702F1
:1030400000000000000000006B02E609E6094C49A0
:1030500053334448004C61637A656E6965207A2079
:103060007369656369612047534D004750524D4372
:103070000020446C75676F73633D20006E6F742091
:103080006176616C6961626C650041542B434D4708
:10309000463D310D0A004F4B0041542B434D4753E1
:1030A0003D22002B34383630313934313938310053
:1030B000220D0A003E001A0D0A002B434D47533AD9
:1030C00020005779736C616E6F20736D73005072BE
:1030D0006F6261207779736C616E696120736D73C3
:1030E00000426C616420777973796C616E6961006C
:0E30F0004750474741004552524F520D0A00CB
:00000001FF
